:100000000C943E000C945B000C945B000C945B0021
:100010000C945B000C945B000C945B000C945B00F4
:100020000C945B000C945B000C945B000C945B00E4
:100030000C945B000C945B000C945B000C945B00D4
:100040000C945B000C945B000C945B000C945B00C4
:100050000C94D8000C945B000C945B000C945B0037
:100060000C945B000C945B000C945B000C945B00A4
:100070000C945B000C945B000C945B0011241FBE7D
:10008000CFEFD8E0DEBFCDBF12E0A0E0B1E0EEE7F9
:10009000F9E002C005900D92AE34B107D9F722E025
:1000A000AEE4B2E001C01D92A235B207E1F70E94B2
:1000B000A1020C94BD040C9400007894579A559AB0
:1000C000569A81B18F6081B982B1807F82B984B143
:1000D0008B6784B95F9A089584B5836084BD84B5C5
:1000E000806A84BD8FE787BD87B588BD85B582608E
:1000F00085BD0895E0EBF0E010828081826080830E
:10010000808180618083E4EBF0E088EC80838081F3
:100110008093B300E1EBF0E08081887F80830895D5
:10012000CF92DF92EF92FF92CF93DF93A0E8B0E0FF
:1001300082E08C93E1E8F0E088E180838C91806834
:100140008C93808182608083E6E8F0E080E69AEE1E
:100150009183808360817181C081D18180E090E052
:100160000E94C2032DE83AE748E85CE30E9450048D
:100170006B017C01BE0180E090E00E94C20326EB8F
:1001800032E341E25DE30E9450049B01AC01C701F0
:10019000B6010E94B5020E94930370938900609398
:1001A0008800DF91CF91FF90EF90DF90CF9008957E
:1001B0001F920F920FB60F9211248F929F92AF92BF
:1001C000BF92CF92DF92EF92FF920F931F932F93E4
:1001D0003F934F935F936F937F938F939F93AF93CF
:1001E000BF93CF93EF93FF930E944D02C82F0E94BD
:1001F000460280915002909151028130910509F49C
:100200004EC08230910519F0892B09F006C1C6361F
:10021000E9F06CF4C23609F1C436F1F584E090E0FF
:1002200090934F0280934E0289E691E030C0CC3625
:1002300031F1C337D9F0C83679F585E090E0909375
:100240004F0280934E0283E891E021C010924F024A
:1002500010924E0282E091E01AC081E090E090930B
:100260004F0280934E028EE191E011C082E090E057
:1002700090934F0280934E028BE391E008C083E09D
:1002800090E090934F0280934E0280E591E00E94AF
:10029000540281E090E0BCC087E991E0C0C083EBEC
:1002A00091E00E94540280914E0290914F02823060
:1002B000910509F448C00CF5009749F1019709F040
:1002C000A1C06C2F70E080E090E00E94C20320E0AB
:1002D00030E048EC52E40E94210320E030E04FE798
:1002E00053E40E9450040E94930367BD87B588BD04
:1002F000299A28982E9A2D9889C08430910509F45E
:100300006FC00CF46AC0059709F46EC07BC06C2FF7
:1003100070E080E090E00E94C20320E030E048EC12
:1003200052E40E94210320E030E04FE753E40E94B2
:1003300050040E94930367BD87B588BD289A299809
:100340002D9A2E9863C0C53B18F089EC91E05CC0F3
:1003500082EF91E00E945402009186001091870084
:10036000E0908600F09087006C2F70E080E090E0D5
:100370000E94C20320E030E044E353E40E942103E2
:100380002AE23EEA4AEA5DE30E9450044B015C0126
:10039000B70180E090E00E94C2039B01AC01C5015F
:1003A000B4010E9450046B017C01B80180E090E030
:1003B0000E94C2032DE83AE748E85CE30E9450043B
:1003C0009B01AC01C701B6010E94B5020E949303D4
:1003D000709389006093880019C082B18F6002C059
:1003E00082B1807F82B912C0C11104C08091B10076
:1003F000887F05C0C13051F48091B1008460809342
:10040000B10004C08AE092E00E94540282E090E0D1
:10041000909351028093500204C081E392E00E94C5
:100420005402FF91EF91CF91BF91AF919F918F9126
:100430007F916F915F914F913F912F911F910F91FC
:10044000FF90EF90DF90CF90BF90AF909F908F90F4
:100450000F900FBE0F901F9018951092C000A1EC46
:10046000B0E01C92E2ECF0E010821092C50087E64A
:100470008093C40088E18C938C9180688C938081F8
:10048000877F808380818660808308959091C000FB
:1004900095FFFCCF8093C60008958091C00087FF30
:1004A000FCCF8091C6000895CF93DF93EC01899132
:1004B000882319F00E944602FACFDF91CF91089568
:1004C0009091C00095FFFCCF8093C60080E090E043
:1004D00008951092CD0087E68093CC00E9ECF0E01F
:1004E00088E18083808180688083EAECF0E080810D
:1004F000877F808380818660808308959091C80083
:1005000095FFFCCF8093CE0008958091C80087FFAF
:10051000FCCF8091CE000895CF93DF93EC018991B9
:10052000882319F00E947E02FACFDF91CF910895BF
:100530009091C80095FFFCCF8093CE0080E090E0C2
:1005400008950E945D000E946C000E9490000E942D
:100550007A000E942D028091000190910101009784
:10056000F1F780E090E008955058BB27AA270E9439
:10057000CC020C9416040E94080438F00E940F0468
:1005800020F039F49F3F19F426F40C9405040EF47E
:10059000E095E7FB0C94FF03E92F0E94270458F332
:1005A000BA17620773078407950720F079F4A6F558
:1005B0000C9449040EF4E0950B2EBA2FA02D0B01DC
:1005C000B90190010C01CA01A0011124FF27591B98
:1005D00099F0593F50F4503E68F11A16F040A22F9E
:1005E000232F342F4427585FF3CF4695379527950F
:1005F000A795F0405395C9F77EF41F16BA0B620B0E
:10060000730B840BBAF09150A1F0FF0FBB1F661F54
:10061000771F881FC2F70EC0BA0F621F731F841F97
:1006200048F4879577956795B795F7959E3F08F0BD
:10063000B0CF9395880F08F09927EE0F979587957F
:1006400008950E9435030C9416040E940F0458F07C
:100650000E94080440F029F45F3F29F00C94FF0346
:1006600051110C944A040C9405040E94270468F369
:100670009923B1F3552391F3951B550BBB27AA275B
:1006800062177307840738F09F5F5F4F220F331F95
:10069000441FAA1FA9F335D00E2E3AF0E0E832D05D
:1006A00091505040E695001CCAF72BD0FE2F29D060
:1006B000660F771F881FBB1F261737074807AB0732
:1006C000B0E809F0BB0B802DBF01FF2793585F4FA7
:1006D0003AF09E3F510578F00C94FF030C944A04C5
:1006E0005F3FE4F3983ED4F3869577956795B79589
:1006F000F7959F5FC9F7880F911D9695879597F994
:100700000895E1E0660F771F881FBB1F621773070C
:100710008407BA0720F0621B730B840BBA0BEE1F21
:1007200088F7E09508950E942F0488F09F5798F06D
:10073000B92F9927B751B0F0E1F0660F771F881FE6
:10074000991F1AF0BA95C9F714C0B13091F00E9400
:100750004904B1E008950C944904672F782F882745
:10076000B85F39F0B93FCCF3869577956795B39527
:10077000D9F73EF490958095709561957F4F8F4F96
:100780009F4F0895E89409C097FB3EF4909580959B
:10079000709561957F4F8F4F9F4F9923A9F0F92F47
:1007A00096E9BB279395F695879577956795B795C5
:1007B000F111F8CFFAF4BB0F11F460FF1BC06F5FAB
:1007C0007F4F8F4F9F4F16C0882311F096E911C0BD
:1007D000772321F09EE8872F762F05C0662371F0DE
:1007E00096E8862F70E060E02AF09A95660F771FF2
:1007F000881FDAF7880F9695879597F9089597F9E6
:100800009F6780E870E060E008959FEF80EC0895B6
:1008100000240A94161617061806090608950024DF
:100820000A9412161306140605060895092E039459
:10083000000C11F4882352F0BB0F40F4BF2B11F4CD
:1008400060FF04C06F5F7F4F8F4F9F4F089557FD2C
:100850009058440F551F59F05F3F71F04795880F2E
:1008600097FB991F61F09F3F79F0879508951216C5
:1008700013061406551FF2CF4695F1DF08C0161671
:1008800017061806991FF1CF869571056105089422
:100890000895E894BB2766277727CB0197F9089539
:1008A0000E9463040C9416040E94080438F00E940D
:1008B0000F0420F0952311F00C94FF030C94050411
:1008C00011240C944A040E94270470F3959FC1F3ED
:1008D000950F50E0551F629FF001729FBB27F00DEE
:1008E000B11D639FAA27F00DB11DAA1F649F662743
:1008F000B00DA11D661F829F2227B00DA11D621F92
:10090000739FB00DA11D621F839FA00D611D221F4B
:10091000749F3327A00D611D231F849F600D211D2F
:10092000822F762F6A2F11249F5750409AF0F1F0B2
:1009300088234AF0EE0FFF1FBB1F661F771F881F1B
:1009400091505040A9F79E3F510580F00C94FF0351
:100950000C944A045F3FE4F3983ED4F38695779570
:100960006795B795F795E7959F5FC1F7FE2B880FC1
:0E097000911D9695879597F90895F894FFCFFD
:10097E000100416D207072696D697420434D445FB2
:10098E004D4F56455F464F52574152440A00416DF6
:10099E00207072696D697420434D445F4D4F56450A
:1009AE005F4241434B574152440A00416D207072E1
:1009BE00696D697420434D445F53544545520A0096
:1009CE00416D207072696D697420434D445F4C49CE
:1009DE00474854535F4F4E0A00416D207072696D47
:1009EE00697420434D445F4C49474854535F4F460A
:1009FE00460A00416D207072696D697420434D4442
:100A0E005F484F4E4B0A00416D207072696D6974DC
:100A1E0020636F6D616E646120696E76616C6964CE
:100A2E00610A00416D207072696D69742061726790
:100A3E00756D656E74756C0A004552523A20556E8E
:100A4E0067686920766972617265206D6169206DD3
:100A5E00617265206465203138302067726164658B
:100A6E000A00416D207072696D697420756E676839
:100A7E0069207669726172650A004552523A2041C8
:100A8E007267756D656E742070656E747275206315
:100A9E006F6D616E646120696E76616C6964610A66
:100AAE00004552523A20496E76616C696420726537
:0E0ABE0063656976652073746174650A0000D3
:00000001FF
